{
  "_format": "hh-sol-artifact-1",
  "contractName": "DEXValidTokens",
  "sourceName": "contracts/DEXValidTokens.sol",
  "abi": [
    {
      "inputs": [
        {
          "internalType": "address[]",
          "name": "tokenAddresses",
          "type": "address[]"
        },
        {
          "internalType": "address",
          "name": "wethContract",
          "type": "address"
        }
      ],
      "stateMutability": "nonpayable",
      "type": "constructor"
    },
    {
      "anonymous": false,
      "inputs": [
        {
          "indexed": true,
          "internalType": "address",
          "name": "previousOwner",
          "type": "address"
        },
        {
          "indexed": true,
          "internalType": "address",
          "name": "newOwner",
          "type": "address"
        }
      ],
      "name": "OwnershipTransferred",
      "type": "event"
    },
    {
      "anonymous": false,
      "inputs": [
        {
          "indexed": false,
          "internalType": "address[]",
          "name": "",
          "type": "address[]"
        },
        {
          "indexed": false,
          "internalType": "address",
          "name": "",
          "type": "address"
        }
      ],
      "name": "TokenAddressesSet",
      "type": "event"
    },
    {
      "anonymous": false,
      "inputs": [
        {
          "indexed": false,
          "internalType": "address[]",
          "name": "",
          "type": "address[]"
        },
        {
          "indexed": false,
          "internalType": "address",
          "name": "",
          "type": "address"
        }
      ],
      "name": "TokensAdded",
      "type": "event"
    },
    {
      "anonymous": false,
      "inputs": [
        {
          "indexed": false,
          "internalType": "address[]",
          "name": "",
          "type": "address[]"
        },
        {
          "indexed": false,
          "internalType": "address",
          "name": "",
          "type": "address"
        }
      ],
      "name": "TokensRemvod",
      "type": "event"
    },
    {
      "inputs": [
        {
          "internalType": "address[]",
          "name": "tokenAddresses",
          "type": "address[]"
        }
      ],
      "name": "addTokens",
      "outputs": [],
      "stateMutability": "nonpayable",
      "type": "function"
    },
    {
      "inputs": [],
      "name": "owner",
      "outputs": [
        {
          "internalType": "address",
          "name": "",
          "type": "address"
        }
      ],
      "stateMutability": "view",
      "type": "function"
    },
    {
      "inputs": [
        {
          "internalType": "address[]",
          "name": "tokenAddresses",
          "type": "address[]"
        }
      ],
      "name": "renewAddresses",
      "outputs": [],
      "stateMutability": "nonpayable",
      "type": "function"
    },
    {
      "inputs": [],
      "name": "renounceOwnership",
      "outputs": [],
      "stateMutability": "nonpayable",
      "type": "function"
    },
    {
      "inputs": [
        {
          "internalType": "uint256",
          "name": "",
          "type": "uint256"
        }
      ],
      "name": "s_validTokenAddresses",
      "outputs": [
        {
          "internalType": "address",
          "name": "",
          "type": "address"
        }
      ],
      "stateMutability": "view",
      "type": "function"
    },
    {
      "inputs": [
        {
          "internalType": "address",
          "name": "newOwner",
          "type": "address"
        }
      ],
      "name": "transferOwnership",
      "outputs": [],
      "stateMutability": "nonpayable",
      "type": "function"
    }
  ],
  "bytecode": "0x60a06040523480156200001157600080fd5b506040516200113938038062001139833981810160405281019062000037919062000441565b620000576200004b6200018760201b60201c565b6200018f60201b60201c565b60005b82518160ff16101562000100576001838260ff1681518110620000825762000081620004a7565b5b60200260200101519080600181540180825580915050600190039060005260206000200160009091909190916101000a81548173ffffffffffffffffffffffffffffffffffffffff021916908373ffffffffffffffffffffffffffffffffffffffff1602179055508080620000f79062000512565b9150506200005a565b508073ffffffffffffffffffffffffffffffffffffffff1660808173ffffffffffffffffffffffffffffffffffffffff16815250507f0f92e01580a0fc1a528e75e070f2ab1b2622d8f422c90e7f878e75530b34c95282620001676200018760201b60201c565b604051620001779291906200061f565b60405180910390a1505062000653565b600033905090565b60008060009054906101000a900473ffffffffffffffffffffffffffffffffffffffff169050816000806101000a81548173ffffffffffffffffffffffffffffffffffffffff021916908373ffffffffffffffffffffffffffffffffffffffff1602179055508173ffffffffffffffffffffffffffffffffffffffff168173ffffffffffffffffffffffffffffffffffffffff167f8be0079c531659141344cd1fd0a4f28419497f9722a3daafe3b4186f6b6457e060405160405180910390a35050565b6000604051905090565b600080fd5b600080fd5b600080fd5b6000601f19601f8301169050919050565b7f4e487b7100000000000000000000000000000000000000000000000000000000600052604160045260246000fd5b620002b7826200026c565b810181811067ffffffffffffffff82111715620002d957620002d86200027d565b5b80604052505050565b6000620002ee62000253565b9050620002fc8282620002ac565b919050565b600067ffffffffffffffff8211156200031f576200031e6200027d565b5b602082029050602081019050919050565b600080fd5b600073ffffffffffffffffffffffffffffffffffffffff82169050919050565b6000620003628262000335565b9050919050565b620003748162000355565b81146200038057600080fd5b50565b600081519050620003948162000369565b92915050565b6000620003b1620003ab8462000301565b620002e2565b90508083825260208201905060208402830185811115620003d757620003d662000330565b5b835b81811015620004045780620003ef888262000383565b845260208401935050602081019050620003d9565b5050509392505050565b600082601f83011262000426576200042562000267565b5b8151620004388482602086016200039a565b91505092915050565b600080604083850312156200045b576200045a6200025d565b5b600083015167ffffffffffffffff8111156200047c576200047b62000262565b5b6200048a858286016200040e565b92505060206200049d8582860162000383565b9150509250929050565b7f4e487b7100000000000000000000000000000000000000000000000000000000600052603260045260246000fd5b7f4e487b7100000000000000000000000000000000000000000000000000000000600052601160045260246000fd5b600060ff82169050919050565b60006200051f8262000505565b915060ff8203620005355762000534620004d6565b5b600182019050919050565b600081519050919050565b600082825260208201905092915050565b6000819050602082019050919050565b620005778162000355565b82525050565b60006200058b83836200056c565b60208301905092915050565b6000602082019050919050565b6000620005b18262000540565b620005bd81856200054b565b9350620005ca836200055c565b8060005b8381101562000601578151620005e588826200057d565b9750620005f28362000597565b925050600181019050620005ce565b5085935050505092915050565b620006198162000355565b82525050565b600060408201905081810360008301526200063b8185620005a4565b90506200064c60208301846200060e565b9392505050565b608051610acd6200066c60003960005050610acd6000f3fe608060405234801561001057600080fd5b50600436106100625760003560e01c80634ae05c7d14610067578063715018a6146100835780638da5cb5b1461008d578063d1d9ff85146100ab578063d4080360146100c7578063f2fde38b146100f7575b600080fd5b610081600480360381019061007c9190610703565b610113565b005b61008b610201565b005b610095610215565b6040516100a2919061075b565b60405180910390f35b6100c560048036038101906100c09190610703565b61023e565b005b6100e160048036038101906100dc91906107ac565b61032c565b6040516100ee919061075b565b60405180910390f35b610111600480360381019061010c91906107d9565b61036b565b005b61011b6103ee565b60005b81518160ff1610156101bd576001828260ff168151811061014257610141610806565b5b60200260200101519080600181540180825580915050600190039060005260206000200160009091909190916101000a81548173ffffffffffffffffffffffffffffffffffffffff021916908373ffffffffffffffffffffffffffffffffffffffff16021790555080806101b590610871565b91505061011e565b507fd6fa28150464027527af46de4f6e4a0c63fdfb5579954631baa13ba43d08fcb6816101e861046c565b6040516101f6929190610958565b60405180910390a150565b6102096103ee565b6102136000610474565b565b60008060009054906101000a900473ffffffffffffffffffffffffffffffffffffffff16905090565b6102466103ee565b60005b81518160ff1610156102e8576001828260ff168151811061026d5761026c610806565b5b60200260200101519080600181540180825580915050600190039060005260206000200160009091909190916101000a81548173ffffffffffffffffffffffffffffffffffffffff021916908373ffffffffffffffffffffffffffffffffffffffff16021790555080806102e090610871565b915050610249565b507f0f92e01580a0fc1a528e75e070f2ab1b2622d8f422c90e7f878e75530b34c9528161031361046c565b604051610321929190610958565b60405180910390a150565b6001818154811061033c57600080fd5b906000526020600020016000915054906101000a900473ffffffffffffffffffffffffffffffffffffffff1681565b6103736103ee565b600073ffffffffffffffffffffffffffffffffffffffff168173ffffffffffffffffffffffffffffffffffffffff16036103e2576040517f08c379a00000000000000000000000000000000000000000000000000000000081526004016103d990610a0b565b60405180910390fd5b6103eb81610474565b50565b6103f661046c565b73ffffffffffffffffffffffffffffffffffffffff16610414610215565b73ffffffffffffffffffffffffffffffffffffffff161461046a576040517f08c379a000000000000000000000000000000000000000000000000000000000815260040161046190610a77565b60405180910390fd5b565b600033905090565b60008060009054906101000a900473ffffffffffffffffffffffffffffffffffffffff169050816000806101000a81548173ffffffffffffffffffffffffffffffffffffffff021916908373ffffffffffffffffffffffffffffffffffffffff1602179055508173ffffffffffffffffffffffffffffffffffffffff168173ffffffffffffffffffffffffffffffffffffffff167f8be0079c531659141344cd1fd0a4f28419497f9722a3daafe3b4186f6b6457e060405160405180910390a35050565b6000604051905090565b600080fd5b600080fd5b600080fd5b6000601f19601f8301169050919050565b7f4e487b7100000000000000000000000000000000000000000000000000000000600052604160045260246000fd5b61059a82610551565b810181811067ffffffffffffffff821117156105b9576105b8610562565b5b80604052505050565b60006105cc610538565b90506105d88282610591565b919050565b600067ffffffffffffffff8211156105f8576105f7610562565b5b602082029050602081019050919050565b600080fd5b600073ffffffffffffffffffffffffffffffffffffffff82169050919050565b60006106398261060e565b9050919050565b6106498161062e565b811461065457600080fd5b50565b60008135905061066681610640565b92915050565b600061067f61067a846105dd565b6105c2565b905080838252602082019050602084028301858111156106a2576106a1610609565b5b835b818110156106cb57806106b78882610657565b8452602084019350506020810190506106a4565b5050509392505050565b600082601f8301126106ea576106e961054c565b5b81356106fa84826020860161066c565b91505092915050565b60006020828403121561071957610718610542565b5b600082013567ffffffffffffffff81111561073757610736610547565b5b610743848285016106d5565b91505092915050565b6107558161062e565b82525050565b6000602082019050610770600083018461074c565b92915050565b6000819050919050565b61078981610776565b811461079457600080fd5b50565b6000813590506107a681610780565b92915050565b6000602082840312156107c2576107c1610542565b5b60006107d084828501610797565b91505092915050565b6000602082840312156107ef576107ee610542565b5b60006107fd84828501610657565b91505092915050565b7f4e487b7100000000000000000000000000000000000000000000000000000000600052603260045260246000fd5b7f4e487b7100000000000000000000000000000000000000000000000000000000600052601160045260246000fd5b600060ff82169050919050565b600061087c82610864565b915060ff820361088f5761088e610835565b5b600182019050919050565b600081519050919050565b600082825260208201905092915050565b6000819050602082019050919050565b6108cf8161062e565b82525050565b60006108e183836108c6565b60208301905092915050565b6000602082019050919050565b60006109058261089a565b61090f81856108a5565b935061091a836108b6565b8060005b8381101561094b57815161093288826108d5565b975061093d836108ed565b92505060018101905061091e565b5085935050505092915050565b6000604082019050818103600083015261097281856108fa565b9050610981602083018461074c565b9392505050565b600082825260208201905092915050565b7f4f776e61626c653a206e6577206f776e657220697320746865207a65726f206160008201527f6464726573730000000000000000000000000000000000000000000000000000602082015250565b60006109f5602683610988565b9150610a0082610999565b604082019050919050565b60006020820190508181036000830152610a24816109e8565b9050919050565b7f4f776e61626c653a2063616c6c6572206973206e6f7420746865206f776e6572600082015250565b6000610a61602083610988565b9150610a6c82610a2b565b602082019050919050565b60006020820190508181036000830152610a9081610a54565b905091905056fea26469706673582212205a8950c13ea28a9791ec6aec60e68e88e95e2a81d531ad0f42206907c33bde3664736f6c63430008110033",
  "linkReferences": {},
  "deployedLinkReferences": {}
}