{
  "address": "0x0165878A594ca255338adfa4d48449f69242Eb8F",
  "abi": [
    {
      "inputs": [
        {
          "internalType": "address[]",
          "name": "tokenAddresses",
          "type": "address[]"
        },
        {
          "internalType": "address[]",
          "name": "chainlinkAggregatorV3Addr",
          "type": "address[]"
        },
        {
          "internalType": "address",
          "name": "wethContract",
          "type": "address"
        }
      ],
      "stateMutability": "nonpayable",
      "type": "constructor"
    },
    {
      "inputs": [],
      "name": "DEXTokenPrice_dataIsInconsistent",
      "type": "error"
    },
    {
      "inputs": [],
      "name": "DEX_WrongFunctionCall",
      "type": "error"
    },
    {
      "inputs": [],
      "name": "DEX_anErrorOccured",
      "type": "error"
    },
    {
      "inputs": [
        {
          "internalType": "address",
          "name": "owner",
          "type": "address"
        },
        {
          "internalType": "address",
          "name": "token",
          "type": "address"
        }
      ],
      "name": "DEX_insufficientBalance",
      "type": "error"
    },
    {
      "inputs": [
        {
          "internalType": "int256",
          "name": "amount",
          "type": "int256"
        }
      ],
      "name": "DEX_insufficientLiquidityInPool",
      "type": "error"
    },
    {
      "inputs": [],
      "name": "DEX_invalidId",
      "type": "error"
    },
    {
      "inputs": [
        {
          "internalType": "address",
          "name": "provider",
          "type": "address"
        },
        {
          "internalType": "uint256",
          "name": "amount",
          "type": "uint256"
        }
      ],
      "name": "DEX_notEnoughAmountProvided",
      "type": "error"
    },
    {
      "inputs": [
        {
          "internalType": "address",
          "name": "provider",
          "type": "address"
        },
        {
          "internalType": "uint256",
          "name": "amount",
          "type": "uint256"
        }
      ],
      "name": "DEX_notEnoughTokenProvided",
      "type": "error"
    },
    {
      "inputs": [
        {
          "internalType": "address",
          "name": "owner",
          "type": "address"
        }
      ],
      "name": "DEX_notPoolOwner",
      "type": "error"
    },
    {
      "inputs": [
        {
          "internalType": "address",
          "name": "token",
          "type": "address"
        }
      ],
      "name": "DEX_notValidToken",
      "type": "error"
    },
    {
      "inputs": [
        {
          "internalType": "uint256",
          "name": "minLockPeriod",
          "type": "uint256"
        }
      ],
      "name": "DEX_poolInTimeLock",
      "type": "error"
    },
    {
      "inputs": [],
      "name": "DEX_poolNotActive",
      "type": "error"
    },
    {
      "inputs": [
        {
          "internalType": "address",
          "name": "from",
          "type": "address"
        },
        {
          "internalType": "address",
          "name": "to",
          "type": "address"
        }
      ],
      "name": "DEX_sameTokensProvidedForSwap",
      "type": "error"
    },
    {
      "inputs": [
        {
          "internalType": "address",
          "name": "from",
          "type": "address"
        },
        {
          "internalType": "address",
          "name": "to",
          "type": "address"
        }
      ],
      "name": "DEX_swapForTokensNotSupported",
      "type": "error"
    },
    {
      "inputs": [
        {
          "internalType": "address",
          "name": "token",
          "type": "address"
        }
      ],
      "name": "DEX_tokenNotSupported",
      "type": "error"
    },
    {
      "anonymous": false,
      "inputs": [
        {
          "indexed": false,
          "internalType": "uint256",
          "name": "ethSwapped",
          "type": "uint256"
        },
        {
          "indexed": false,
          "internalType": "int256",
          "name": "tokenReceived",
          "type": "int256"
        },
        {
          "indexed": false,
          "internalType": "int256",
          "name": "transactionFee",
          "type": "int256"
        },
        {
          "indexed": false,
          "internalType": "address",
          "name": "user",
          "type": "address"
        }
      ],
      "name": "EthToTokenSwapSuccessfull",
      "type": "event"
    },
    {
      "anonymous": false,
      "inputs": [
        {
          "indexed": false,
          "internalType": "uint256",
          "name": "poolId",
          "type": "uint256"
        },
        {
          "indexed": false,
          "internalType": "uint256",
          "name": "tokenToRecieve",
          "type": "uint256"
        },
        {
          "indexed": false,
          "internalType": "uint256",
          "name": "tokenToReceiveWithInterest",
          "type": "uint256"
        },
        {
          "indexed": false,
          "internalType": "uint256",
          "name": "totalInterestEarned",
          "type": "uint256"
        },
        {
          "indexed": false,
          "internalType": "address",
          "name": "user",
          "type": "address"
        },
        {
          "indexed": false,
          "internalType": "address",
          "name": "token",
          "type": "address"
        }
      ],
      "name": "LiquidityWithdrawSuccessfull",
      "type": "event"
    },
    {
      "anonymous": false,
      "inputs": [
        {
          "indexed": true,
          "internalType": "address",
          "name": "previousOwner",
          "type": "address"
        },
        {
          "indexed": true,
          "internalType": "address",
          "name": "newOwner",
          "type": "address"
        }
      ],
      "name": "OwnershipTransferred",
      "type": "event"
    },
    {
      "anonymous": false,
      "inputs": [
        {
          "indexed": false,
          "internalType": "address[]",
          "name": "",
          "type": "address[]"
        },
        {
          "indexed": false,
          "internalType": "address",
          "name": "",
          "type": "address"
        }
      ],
      "name": "TokenAddressesSet",
      "type": "event"
    },
    {
      "anonymous": false,
      "inputs": [
        {
          "indexed": false,
          "internalType": "uint256",
          "name": "tokenSwapped",
          "type": "uint256"
        },
        {
          "indexed": false,
          "internalType": "int256",
          "name": "tokenReceived",
          "type": "int256"
        },
        {
          "indexed": false,
          "internalType": "int256",
          "name": "transactionFee",
          "type": "int256"
        },
        {
          "indexed": false,
          "internalType": "address",
          "name": "user",
          "type": "address"
        }
      ],
      "name": "TokenToEthSwapSuccessfull",
      "type": "event"
    },
    {
      "anonymous": false,
      "inputs": [
        {
          "indexed": false,
          "internalType": "address[]",
          "name": "",
          "type": "address[]"
        },
        {
          "indexed": false,
          "internalType": "address",
          "name": "",
          "type": "address"
        }
      ],
      "name": "TokensAdded",
      "type": "event"
    },
    {
      "anonymous": false,
      "inputs": [
        {
          "indexed": false,
          "internalType": "address[]",
          "name": "",
          "type": "address[]"
        },
        {
          "indexed": false,
          "internalType": "address",
          "name": "",
          "type": "address"
        }
      ],
      "name": "TokensRemvod",
      "type": "event"
    },
    {
      "anonymous": false,
      "inputs": [
        {
          "indexed": false,
          "internalType": "address[]",
          "name": "tokenAddresses",
          "type": "address[]"
        },
        {
          "indexed": false,
          "internalType": "address[]",
          "name": "contractAddresses",
          "type": "address[]"
        },
        {
          "indexed": false,
          "internalType": "address",
          "name": "owner",
          "type": "address"
        }
      ],
      "name": "chainLinkPriceFeedAdded",
      "type": "event"
    },
    {
      "anonymous": false,
      "inputs": [
        {
          "indexed": true,
          "internalType": "uint256",
          "name": "poolId",
          "type": "uint256"
        },
        {
          "indexed": true,
          "internalType": "address",
          "name": "token",
          "type": "address"
        },
        {
          "indexed": false,
          "internalType": "uint256",
          "name": "amount",
          "type": "uint256"
        },
        {
          "indexed": false,
          "internalType": "address",
          "name": "owner",
          "type": "address"
        },
        {
          "indexed": true,
          "internalType": "uint256",
          "name": "timeStamp",
          "type": "uint256"
        },
        {
          "indexed": false,
          "internalType": "uint256",
          "name": "minLockPeriod",
          "type": "uint256"
        },
        {
          "indexed": false,
          "internalType": "bool",
          "name": "active",
          "type": "bool"
        }
      ],
      "name": "poolCreated",
      "type": "event"
    },
    {
      "anonymous": false,
      "inputs": [
        {
          "indexed": false,
          "internalType": "uint256",
          "name": "tokenSwapped",
          "type": "uint256"
        },
        {
          "indexed": false,
          "internalType": "int256",
          "name": "tokenReceived",
          "type": "int256"
        },
        {
          "indexed": false,
          "internalType": "int256",
          "name": "transactionFee",
          "type": "int256"
        },
        {
          "indexed": false,
          "internalType": "address",
          "name": "user",
          "type": "address"
        }
      ],
      "name": "tokenSwappedSuccessfully",
      "type": "event"
    },
    {
      "stateMutability": "payable",
      "type": "fallback"
    },
    {
      "inputs": [
        {
          "internalType": "address[]",
          "name": "tokenAddresses",
          "type": "address[]"
        },
        {
          "internalType": "address[]",
          "name": "contractAddresses",
          "type": "address[]"
        }
      ],
      "name": "addChainlinkPriceFeeds",
      "outputs": [],
      "stateMutability": "nonpayable",
      "type": "function"
    },
    {
      "inputs": [
        {
          "internalType": "address[]",
          "name": "tokenAddresses",
          "type": "address[]"
        }
      ],
      "name": "addTokens",
      "outputs": [],
      "stateMutability": "nonpayable",
      "type": "function"
    },
    {
      "inputs": [
        {
          "internalType": "address",
          "name": "from",
          "type": "address"
        },
        {
          "internalType": "address",
          "name": "to",
          "type": "address"
        },
        {
          "internalType": "uint256",
          "name": "amount",
          "type": "uint256"
        }
      ],
      "name": "calculateExchangeToken",
      "outputs": [
        {
          "internalType": "int256",
          "name": "",
          "type": "int256"
        }
      ],
      "stateMutability": "view",
      "type": "function"
    },
    {
      "inputs": [
        {
          "internalType": "address",
          "name": "from",
          "type": "address"
        },
        {
          "internalType": "address",
          "name": "to",
          "type": "address"
        },
        {
          "internalType": "uint256",
          "name": "amount",
          "type": "uint256"
        }
      ],
      "name": "calculateExchangeTokenAfterFee",
      "outputs": [
        {
          "internalType": "int256",
          "name": "",
          "type": "int256"
        }
      ],
      "stateMutability": "view",
      "type": "function"
    },
    {
      "inputs": [
        {
          "internalType": "address",
          "name": "contributer",
          "type": "address"
        }
      ],
      "name": "checkContributionIds",
      "outputs": [
        {
          "internalType": "uint256[]",
          "name": "",
          "type": "uint256[]"
        }
      ],
      "stateMutability": "view",
      "type": "function"
    },
    {
      "inputs": [
        {
          "internalType": "address",
          "name": "token",
          "type": "address"
        }
      ],
      "name": "checkPoolBalanceForToken",
      "outputs": [
        {
          "internalType": "uint256",
          "name": "",
          "type": "uint256"
        }
      ],
      "stateMutability": "view",
      "type": "function"
    },
    {
      "inputs": [
        {
          "internalType": "uint256",
          "name": "id",
          "type": "uint256"
        }
      ],
      "name": "checkPoolWithId",
      "outputs": [
        {
          "components": [
            {
              "internalType": "address",
              "name": "token",
              "type": "address"
            },
            {
              "internalType": "uint256",
              "name": "amount",
              "type": "uint256"
            },
            {
              "internalType": "uint256",
              "name": "timestamp",
              "type": "uint256"
            },
            {
              "internalType": "uint256",
              "name": "minLockPeriod",
              "type": "uint256"
            },
            {
              "internalType": "address",
              "name": "owner",
              "type": "address"
            },
            {
              "internalType": "bool",
              "name": "active",
              "type": "bool"
            }
          ],
          "internalType": "struct DEX.pool",
          "name": "",
          "type": "tuple"
        }
      ],
      "stateMutability": "view",
      "type": "function"
    },
    {
      "inputs": [
        {
          "internalType": "address",
          "name": "token",
          "type": "address"
        }
      ],
      "name": "getPriceFeedContract",
      "outputs": [
        {
          "internalType": "address",
          "name": "",
          "type": "address"
        }
      ],
      "stateMutability": "view",
      "type": "function"
    },
    {
      "inputs": [],
      "name": "owner",
      "outputs": [
        {
          "internalType": "address",
          "name": "",
          "type": "address"
        }
      ],
      "stateMutability": "view",
      "type": "function"
    },
    {
      "inputs": [
        {
          "internalType": "address",
          "name": "token",
          "type": "address"
        },
        {
          "internalType": "uint256",
          "name": "amount",
          "type": "uint256"
        }
      ],
      "name": "provideLiquidity",
      "outputs": [],
      "stateMutability": "nonpayable",
      "type": "function"
    },
    {
      "inputs": [],
      "name": "provideLiquidityInEth",
      "outputs": [],
      "stateMutability": "payable",
      "type": "function"
    },
    {
      "inputs": [
        {
          "internalType": "uint256",
          "name": "poolId",
          "type": "uint256"
        },
        {
          "internalType": "address",
          "name": "token",
          "type": "address"
        }
      ],
      "name": "removeLiquidity",
      "outputs": [],
      "stateMutability": "nonpayable",
      "type": "function"
    },
    {
      "inputs": [
        {
          "internalType": "address[]",
          "name": "tokenAddresses",
          "type": "address[]"
        }
      ],
      "name": "renewAddresses",
      "outputs": [],
      "stateMutability": "nonpayable",
      "type": "function"
    },
    {
      "inputs": [],
      "name": "renounceOwnership",
      "outputs": [],
      "stateMutability": "nonpayable",
      "type": "function"
    },
    {
      "inputs": [
        {
          "internalType": "uint256",
          "name": "",
          "type": "uint256"
        }
      ],
      "name": "s_validTokenAddresses",
      "outputs": [
        {
          "internalType": "address",
          "name": "",
          "type": "address"
        }
      ],
      "stateMutability": "view",
      "type": "function"
    },
    {
      "inputs": [],
      "name": "supportedTokens",
      "outputs": [
        {
          "internalType": "address[]",
          "name": "",
          "type": "address[]"
        }
      ],
      "stateMutability": "view",
      "type": "function"
    },
    {
      "inputs": [
        {
          "internalType": "address",
          "name": "from",
          "type": "address"
        },
        {
          "internalType": "address",
          "name": "to",
          "type": "address"
        },
        {
          "internalType": "uint256",
          "name": "amount",
          "type": "uint256"
        }
      ],
      "name": "swap",
      "outputs": [],
      "stateMutability": "nonpayable",
      "type": "function"
    },
    {
      "inputs": [
        {
          "internalType": "address",
          "name": "from",
          "type": "address"
        },
        {
          "internalType": "address",
          "name": "to",
          "type": "address"
        },
        {
          "internalType": "uint256",
          "name": "amount",
          "type": "uint256"
        }
      ],
      "name": "swapTokenToWETH",
      "outputs": [],
      "stateMutability": "payable",
      "type": "function"
    },
    {
      "inputs": [
        {
          "internalType": "address",
          "name": "from",
          "type": "address"
        },
        {
          "internalType": "address",
          "name": "to",
          "type": "address"
        }
      ],
      "name": "swapWETHToToken",
      "outputs": [],
      "stateMutability": "payable",
      "type": "function"
    },
    {
      "inputs": [
        {
          "internalType": "address",
          "name": "newOwner",
          "type": "address"
        }
      ],
      "name": "transferOwnership",
      "outputs": [],
      "stateMutability": "nonpayable",
      "type": "function"
    },
    {
      "stateMutability": "payable",
      "type": "receive"
    }
  ],
  "transactionHash": "0x403c87551781175b9071ccc4593cfed3efd5a37bf8dd8f5c8ffbe7c2ad49e64c",
  "args": [
    [
      "0x5FbDB2315678afecb367f032d93F642f64180aa3",
      "0x9fE46736679d2D9a65F0992F2272dE9f3c7fa6e0",
      "0xe7f1725E7734CE288F8367e1Bb143E90bb3F0512"
    ],
    [
      "0xCf7Ed3AccA5a467e9e704C703E8D87F634fB0Fc9",
      "0xDc64a140Aa3E981100a9becA4E685f962f0cF6C9",
      "0x5FC8d32690cc91D4c39d9d3abcBD16989F875707"
    ],
    "0x9fE46736679d2D9a65F0992F2272dE9f3c7fa6e0"
  ],
  "numDeployments": 1,
  "solcInputHash": "345f2557f403bae0a1d322a43781766d",
  "bytecode": "0x60a06040523480156200001157600080fd5b5060405162004eb438038062004eb4833981810160405281019062000037919062000537565b828284836200005b6200004f6200027d60201b60201c565b6200028560201b60201c565b60005b82518160ff16101562000104576001838260ff1681518110620000865762000085620005d1565b5b60200260200101519080600181540180825580915050600190039060005260206000200160009091909190916101000a81548173ffffffffffffffffffffffffffffffffffffffff021916908373ffffffffffffffffffffffffffffffffffffffff1602179055508080620000fb906200063c565b9150506200005e565b508073ffffffffffffffffffffffffffffffffffffffff1660808173ffffffffffffffffffffffffffffffffffffffff16815250507f0f92e01580a0fc1a528e75e070f2ab1b2622d8f422c90e7f878e75530b34c952826200016b6200027d60201b60201c565b6040516200017b92919062000749565b60405180910390a1505060005b82518160ff1610156200026957818160ff1681518110620001ae57620001ad620005d1565b5b602002602001015160026000858460ff1681518110620001d357620001d2620005d1565b5b602002602001015173ffffffffffffffffffffffffffffffffffffffff1673ffffffffffffffffffffffffffffffffffffffff16815260200190815260200160002060006101000a81548173ffffffffffffffffffffffffffffffffffffffff021916908373ffffffffffffffffffffffffffffffffffffffff160217905550808062000260906200063c565b91505062000188565b50505060016003819055505050506200077d565b600033905090565b60008060009054906101000a900473ffffffffffffffffffffffffffffffffffffffff169050816000806101000a81548173ffffffffffffffffffffffffffffffffffffffff021916908373ffffffffffffffffffffffffffffffffffffffff1602179055508173ffffffffffffffffffffffffffffffffffffffff168173ffffffffffffffffffffffffffffffffffffffff167f8be0079c531659141344cd1fd0a4f28419497f9722a3daafe3b4186f6b6457e060405160405180910390a35050565b6000604051905090565b600080fd5b600080fd5b600080fd5b6000601f19601f8301169050919050565b7f4e487b7100000000000000000000000000000000000000000000000000000000600052604160045260246000fd5b620003ad8262000362565b810181811067ffffffffffffffff82111715620003cf57620003ce62000373565b5b80604052505050565b6000620003e462000349565b9050620003f28282620003a2565b919050565b600067ffffffffffffffff82111562000415576200041462000373565b5b602082029050602081019050919050565b600080fd5b600073ffffffffffffffffffffffffffffffffffffffff82169050919050565b600062000458826200042b565b9050919050565b6200046a816200044b565b81146200047657600080fd5b50565b6000815190506200048a816200045f565b92915050565b6000620004a7620004a184620003f7565b620003d8565b90508083825260208201905060208402830185811115620004cd57620004cc62000426565b5b835b81811015620004fa5780620004e5888262000479565b845260208401935050602081019050620004cf565b5050509392505050565b600082601f8301126200051c576200051b6200035d565b5b81516200052e84826020860162000490565b91505092915050565b60008060006060848603121562000553576200055262000353565b5b600084015167ffffffffffffffff81111562000574576200057362000358565b5b620005828682870162000504565b935050602084015167ffffffffffffffff811115620005a657620005a562000358565b5b620005b48682870162000504565b9250506040620005c78682870162000479565b9150509250925092565b7f4e487b7100000000000000000000000000000000000000000000000000000000600052603260045260246000fd5b7f4e487b7100000000000000000000000000000000000000000000000000000000600052601160045260246000fd5b600060ff82169050919050565b600062000649826200062f565b915060ff82036200065f576200065e62000600565b5b600182019050919050565b600081519050919050565b600082825260208201905092915050565b6000819050602082019050919050565b620006a1816200044b565b82525050565b6000620006b5838362000696565b60208301905092915050565b6000602082019050919050565b6000620006db826200066a565b620006e7818562000675565b9350620006f48362000686565b8060005b838110156200072b5781516200070f8882620006a7565b97506200071c83620006c1565b925050600181019050620006f8565b5085935050505092915050565b62000743816200044b565b82525050565b60006040820190508181036000830152620007658185620006ce565b905062000776602083018462000738565b9392505050565b6080516146ab620008096000396000818161081e015281816108730152818161176b015281816117f50152818161190d01528181611e9101528181611efc01528181612014015281816121ef0152818161224a0152818161228b01528181612381015281816129b301528181612ba001528181612c2501528181612d030152612d5801526146ab6000f3fe6080604052600436106101235760003560e01c80638da5cb5b116100a0578063d1d9ff8511610064578063d1d9ff85146103e3578063d40803601461040c578063de8d2c8e14610449578063df791e5014610453578063f2fde38b1461047c5761012a565b80638da5cb5b146102f7578063968c6313146103225780639a84a86f1461035f578063a8269acd1461037b578063b002249d146103b85761012a565b806353dd6d0d116100e757806353dd6d0d146102215780635fea61201461025e578063681a1a16146102875780636b638d7f146102a3578063715018a6146102e05761012a565b806305fe138b1461012c5780630e89a3ce1461015557806327e28b891461017e5780633464f284146101bb5780634ae05c7d146101f85761012a565b3661012a57005b005b34801561013857600080fd5b50610153600480360381019061014e91906138a2565b6104a5565b005b34801561016157600080fd5b5061017c60048036038101906101779190613a3b565b610a7b565b005b34801561018a57600080fd5b506101a560048036038101906101a09190613ab3565b610bec565b6040516101b29190613aef565b60405180910390f35b3480156101c757600080fd5b506101e260048036038101906101dd9190613ab3565b610d29565b6040516101ef9190613b19565b60405180910390f35b34801561020457600080fd5b5061021f600480360381019061021a9190613b34565b610d92565b005b34801561022d57600080fd5b5061024860048036038101906102439190613b7d565b610e80565b6040516102559190613be9565b60405180910390f35b34801561026a57600080fd5b5061028560048036038101906102809190613c04565b611106565b005b6102a1600480360381019061029c9190613c44565b6115e1565b005b3480156102af57600080fd5b506102ca60048036038101906102c59190613ab3565b611ad0565b6040516102d79190613d42565b60405180910390f35b3480156102ec57600080fd5b506102f5611b67565b005b34801561030357600080fd5b5061030c611b7b565b6040516103199190613b19565b60405180910390f35b34801561032e57600080fd5b5061034960048036038101906103449190613b7d565b611ba4565b6040516103569190613be9565b60405180910390f35b61037960048036038101906103749190613b7d565b611d46565b005b34801561038757600080fd5b506103a2600480360381019061039d9190613d64565b612601565b6040516103af9190613e36565b60405180910390f35b3480156103c457600080fd5b506103cd612755565b6040516103da9190613f00565b60405180910390f35b3480156103ef57600080fd5b5061040a60048036038101906104059190613b34565b6127e3565b005b34801561041857600080fd5b50610433600480360381019061042e9190613d64565b6128d1565b6040516104409190613b19565b60405180910390f35b610451612910565b005b34801561045f57600080fd5b5061047a60048036038101906104759190613b7d565b612cb4565b005b34801561048857600080fd5b506104a3600480360381019061049e9190613ab3565b6132e8565b005b6002600354036104ea576040517f08c379a00000000000000000000000000000000000000000000000000000000081526004016104e190613f7f565b60405180910390fd5b60026003819055506104fb8161336b565b61053c57806040517f7797ffbe0000000000000000000000000000000000000000000000000000000081526004016105339190613b19565b60405180910390fd5b6105466004613480565b821061057e576040517f04f490d500000000000000000000000000000000000000000000000000000000815260040160405180910390fd5b6000600560008481526020019081526020016000209050600015158160040160149054906101000a900460ff161515036105e4576040517ffb2d2bb600000000000000000000000000000000000000000000000000000000815260040160405180910390fd5b3373ffffffffffffffffffffffffffffffffffffffff168160040160009054906101000a900473ffffffffffffffffffffffffffffffffffffffff1673ffffffffffffffffffffffffffffffffffffffff161461067857336040517f56b9e3ae00000000000000000000000000000000000000000000000000000000815260040161066f9190613b19565b60405180910390fd5b42816003015411156106c55780600301546040517f98fb43820000000000000000000000000000000000000000000000000000000081526004016106bc9190613aef565b60405180910390fd5b60008160010154905060006106ff8360000160009054906101000a900473ffffffffffffffffffffffffffffffffffffffff168584610e80565b9050808473ffffffffffffffffffffffffffffffffffffffff166370a08231306040518263ffffffff1660e01b815260040161073b9190613b19565b602060405180830381865afa158015610758573d6000803e3d6000fd5b505050506040513d601f19601f8201168201806040525081019061077c9190613fb4565b10156107bf57806040517fb8c67e600000000000000000000000000000000000000000000000000000000081526004016107b69190613be9565b60405180910390fd5b60006107cf82856002015461348e565b905060006107fd6402540be4006107ef848661351090919063ffffffff16565b61352690919063ffffffff16565b905060008560040160146101000a81548160ff0219169083151502179055507f000000000000000000000000000000000000000000000000000000000000000073ffffffffffffffffffffffffffffffffffffffff168673ffffffffffffffffffffffffffffffffffffffff16036109a95760007f000000000000000000000000000000000000000000000000000000000000000090508073ffffffffffffffffffffffffffffffffffffffff16632e1a7d4d836040518263ffffffff1660e01b81526004016108cd9190613aef565b600060405180830381600087803b1580156108e757600080fd5b505af11580156108fb573d6000803e3d6000fd5b5050505060003373ffffffffffffffffffffffffffffffffffffffff168360405161092590614012565b60006040518083038185875af1925050503d8060008114610962576040519150601f19603f3d011682016040523d82523d6000602084013e610967565b606091505b50509050806109a2576040517fd7227dda00000000000000000000000000000000000000000000000000000000815260040160405180910390fd5b5050610a29565b8573ffffffffffffffffffffffffffffffffffffffff1663a9059cbb33836040518363ffffffff1660e01b81526004016109e4929190614027565b6020604051808303816000875af1158015610a03573d6000803e3d6000fd5b505050506040513d601f19601f82011682018060405250810190610a27919061407c565b505b7f214bcf04e4c723a07e54c933e5e0cee347609545851dabc49534923ab040725287848385338b604051610a62969594939291906140a9565b60405180910390a1505050505060016003819055505050565b610a8361353c565b805182511180610a94575080518251105b15610acb576040517f089b91de00000000000000000000000000000000000000000000000000000000815260040160405180910390fd5b60005b82518160ff161015610ba557818160ff1681518110610af057610aef61410a565b5b602002602001015160026000858460ff1681518110610b1257610b1161410a565b5b602002602001015173ffffffffffffffffffffffffffffffffffffffff1673ffffffffffffffffffffffffffffffffffffffff16815260200190815260200160002060006101000a81548173ffffffffffffffffffffffffffffffffffffffff021916908373ffffffffffffffffffffffffffffffffffffffff1602179055508080610b9d90614175565b915050610ace565b507fb6a3ef7cf10656c235edee3c98898ae8a752c47fc3d8e0c6da716bc6607824988282610bd16135ba565b604051610be09392919061419e565b60405180910390a15050565b60008073ffffffffffffffffffffffffffffffffffffffff168273ffffffffffffffffffffffffffffffffffffffff1603610c5e57816040517ff013c1c7000000000000000000000000000000000000000000000000000000008152600401610c559190613b19565b60405180910390fd5b610c678261336b565b610ca857816040517f7797ffbe000000000000000000000000000000000000000000000000000000008152600401610c9f9190613b19565b60405180910390fd5b8173ffffffffffffffffffffffffffffffffffffffff166370a08231306040518263ffffffff1660e01b8152600401610ce19190613b19565b602060405180830381865afa158015610cfe573d6000803e3d6000fd5b505050506040513d601f19601f82011682018060405250810190610d229190613fb4565b9050919050565b6000600260008373ffffffffffffffffffffffffffffffffffffffff1673ffffffffffffffffffffffffffffffffffffffff16815260200190815260200160002060009054906101000a900473ffffffffffffffffffffffffffffffffffffffff169050919050565b610d9a61353c565b60005b81518160ff161015610e3c576001828260ff1681518110610dc157610dc061410a565b5b60200260200101519080600181540180825580915050600190039060005260206000200160009091909190916101000a81548173ffffffffffffffffffffffffffffffffffffffff021916908373ffffffffffffffffffffffffffffffffffffffff1602179055508080610e3490614175565b915050610d9d565b507fd6fa28150464027527af46de4f6e4a0c63fdfb5579954631baa13ba43d08fcb681610e676135ba565b604051610e759291906141e3565b60405180910390a150565b60008073ffffffffffffffffffffffffffffffffffffffff168473ffffffffffffffffffffffffffffffffffffffff161480610ee85750600073ffffffffffffffffffffffffffffffffffffffff168373ffffffffffffffffffffffffffffffffffffffff16145b15610f2b5760006040517ff013c1c7000000000000000000000000000000000000000000000000000000008152600401610f229190613b19565b60405180910390fd5b60008211610f725733826040517f188ea6a1000000000000000000000000000000000000000000000000000000008152600401610f69929190614027565b60405180910390fd5b610f7b8461336b565b1580610f8d5750610f8b8361336b565b155b15610fd15783836040517fccb4b98a000000000000000000000000000000000000000000000000000000008152600401610fc8929190614213565b60405180910390fd5b6000600260008673ffffffffffffffffffffffffffffffffffffffff1673ffffffffffffffffffffffffffffffffffffffff16815260200190815260200160002060009054906101000a900473ffffffffffffffffffffffffffffffffffffffff1690506000600260008673ffffffffffffffffffffffffffffffffffffffff1673ffffffffffffffffffffffffffffffffffffffff16815260200190815260200160002060009054906101000a900473ffffffffffffffffffffffffffffffffffffffff16905060006110a4836135c2565b905060006110b1836135c2565b905060006305f5e100905060006110e3836110d5848761352690919063ffffffff16565b6135d990919063ffffffff16565b9050600088826110f3919061423c565b9050809750505050505050509392505050565b60026003540361114b576040517f08c379a000000000000000000000000000000000000000000000000000000000815260040161114290613f7f565b60405180910390fd5b6002600381905550600073ffffffffffffffffffffffffffffffffffffffff168273ffffffffffffffffffffffffffffffffffffffff16036111c457816040517ff013c1c70000000000000000000000000000000000000000000000000000000081526004016111bb9190613b19565b60405180910390fd5b6000811161120b5733816040517f45291326000000000000000000000000000000000000000000000000000000008152600401611202929190614027565b60405180910390fd5b6112148261336b565b61125557816040517f7797ffbe00000000000000000000000000000000000000000000000000000000815260040161124c9190613b19565b60405180910390fd5b808273ffffffffffffffffffffffffffffffffffffffff166370a08231336040518263ffffffff1660e01b815260040161128f9190613b19565b602060405180830381865afa1580156112ac573d6000803e3d6000fd5b505050506040513d601f19601f820116820180604052508101906112d09190613fb4565b10156113155733826040517f2250391f00000000000000000000000000000000000000000000000000000000815260040161130c929190614213565b60405180910390fd5b60006040518060c001604052808473ffffffffffffffffffffffffffffffffffffffff16815260200183815260200142815260200162093a804261135991906142b4565b81526020013373ffffffffffffffffffffffffffffffffffffffff16815260200160011515815250905080600560006113926004613480565b815260200190815260200160002060008201518160000160006101000a81548173ffffffffffffffffffffffffffffffffffffffff021916908373ffffffffffffffffffffffffffffffffffffffff16021790555060208201518160010155604082015181600201556060820151816003015560808201518160040160006101000a81548173ffffffffffffffffffffffffffffffffffffffff021916908373ffffffffffffffffffffffffffffffffffffffff16021790555060a08201518160040160146101000a81548160ff021916908315150217905550905050600061147b6004613480565b9050600660003373ffffffffffffffffffffffffffffffffffffffff1673ffffffffffffffffffffffffffffffffffffffff1681526020019081526020016000208190806001815401808255809150506001900390600052602060002001600090919091909150556114ed60046135ef565b8373ffffffffffffffffffffffffffffffffffffffff166323b872dd3330866040518463ffffffff1660e01b815260040161152a939291906142e8565b6020604051808303816000875af1158015611549573d6000803e3d6000fd5b505050506040513d601f19601f8201168201806040525081019061156d919061407c565b50428473ffffffffffffffffffffffffffffffffffffffff16827f36fada1fbbd5061ae87da160ee9cf9148d23771d156cdcd0d509004665580992863362093a80426115b991906142b4565b60016040516115cb949392919061432e565b60405180910390a4505060016003819055505050565b600260035403611626576040517f08c379a000000000000000000000000000000000000000000000000000000000815260040161161d90613f7f565b60405180910390fd5b6002600381905550600073ffffffffffffffffffffffffffffffffffffffff168273ffffffffffffffffffffffffffffffffffffffff1614806116955750600073ffffffffffffffffffffffffffffffffffffffff168173ffffffffffffffffffffffffffffffffffffffff16145b156116d85760006040517ff013c1c70000000000000000000000000000000000000000000000000000000081526004016116cf9190613b19565b60405180910390fd5b6000341161171f5733346040517f188ea6a1000000000000000000000000000000000000000000000000000000008152600401611716929190614027565b60405180910390fd5b6117288161336b565b61176957806040517f7797ffbe0000000000000000000000000000000000000000000000000000000081526004016117609190613b19565b60405180910390fd5b7f000000000000000000000000000000000000000000000000000000000000000073ffffffffffffffffffffffffffffffffffffffff168273ffffffffffffffffffffffffffffffffffffffff16146117ee576040517fd4f017e300000000000000000000000000000000000000000000000000000000815260040160405180910390fd5b600061181b7f00000000000000000000000000000000000000000000000000000000000000008334610e80565b90506118356402540be4008261352690919063ffffffff16565b8273ffffffffffffffffffffffffffffffffffffffff166370a08231306040518263ffffffff1660e01b815260040161186e9190613b19565b602060405180830381865afa15801561188b573d6000803e3d6000fd5b505050506040513d601f19601f820116820180604052508101906118af9190613fb4565b1015611909576118cd6402540be4008261352690919063ffffffff16565b6040517fb8c67e600000000000000000000000000000000000000000000000000000000081526004016119009190613be9565b60405180910390fd5b60007f000000000000000000000000000000000000000000000000000000000000000090508073ffffffffffffffffffffffffffffffffffffffff1663d0e30db0346040518263ffffffff1660e01b81526004016000604051808303818588803b15801561197657600080fd5b505af115801561198a573d6000803e3d6000fd5b5050505050600061199a83613605565b90508373ffffffffffffffffffffffffffffffffffffffff1663a9059cbb336119e36402540be4006119d5868961363b90919063ffffffff16565b61352690919063ffffffff16565b6040518363ffffffff1660e01b8152600401611a00929190614027565b6020604051808303816000875af1158015611a1f573d6000803e3d6000fd5b505050506040513d601f19601f82011682018060405250810190611a43919061407c565b507f5ea8759b68627ec29b178c065e52f9aa44e80fa7a9826379f0b00d0c4737aeb134611a906402540be400611a82858861363b90919063ffffffff16565b61352690919063ffffffff16565b611aa86402540be4008561352690919063ffffffff16565b33604051611ab99493929190614373565b60405180910390a150505060016003819055505050565b6060600660008373ffffffffffffffffffffffffffffffffffffffff1673ffffffffffffffffffffffffffffffffffffffff168152602001908152602001600020805480602002602001604051908101604052809291908181526020018280548015611b5b57602002820191906000526020600020905b815481526020019060010190808311611b47575b50505050509050919050565b611b6f61353c565b611b796000613651565b565b60008060009054906101000a900473ffffffffffffffffffffffffffffffffffffffff16905090565b60008073ffffffffffffffffffffffffffffffffffffffff168473ffffffffffffffffffffffffffffffffffffffff161480611c0c5750600073ffffffffffffffffffffffffffffffffffffffff168373ffffffffffffffffffffffffffffffffffffffff16145b15611c4f5760006040517ff013c1c7000000000000000000000000000000000000000000000000000000008152600401611c469190613b19565b60405180910390fd5b60008211611c965733826040517f188ea6a1000000000000000000000000000000000000000000000000000000008152600401611c8d929190614027565b60405180910390fd5b611c9f8461336b565b1580611cb15750611caf8361336b565b155b15611cf55783836040517fccb4b98a000000000000000000000000000000000000000000000000000000008152600401611cec929190614213565b60405180910390fd5b6000611d02858585610e80565b90506000611d0f82613605565b9050611d3b6402540be400611d2d838561363b90919063ffffffff16565b61352690919063ffffffff16565b925050509392505050565b600260035403611d8b576040517f08c379a0000000000000000000000000000000000000000000000000000000008152600401611d8290613f7f565b60405180910390fd5b6002600381905550600073ffffffffffffffffffffffffffffffffffffffff168373ffffffffffffffffffffffffffffffffffffffff161480611dfa5750600073ffffffffffffffffffffffffffffffffffffffff168273ffffffffffffffffffffffffffffffffffffffff16145b15611e3d5760006040517ff013c1c7000000000000000000000000000000000000000000000000000000008152600401611e349190613b19565b60405180910390fd5b60008111611e845733816040517f188ea6a1000000000000000000000000000000000000000000000000000000008152600401611e7b929190614027565b60405180910390fd5b600034118015611edf57507f000000000000000000000000000000000000000000000000000000000000000073ffffffffffffffffffffffffffffffffffffffff168373ffffffffffffffffffffffffffffffffffffffff16145b8015611ef05750611eef8261336b565b5b156121d0576000611f227f00000000000000000000000000000000000000000000000000000000000000008484610e80565b9050611f3c6402540be4008261352690919063ffffffff16565b8373ffffffffffffffffffffffffffffffffffffffff166370a08231306040518263ffffffff1660e01b8152600401611f759190613b19565b602060405180830381865afa158015611f92573d6000803e3d6000fd5b505050506040513d601f19601f82011682018060405250810190611fb69190613fb4565b101561201057611fd46402540be4008261352690919063ffffffff16565b6040517fb8c67e600000000000000000000000000000000000000000000000000000000081526004016120079190613be9565b60405180910390fd5b60007f000000000000000000000000000000000000000000000000000000000000000090508073ffffffffffffffffffffffffffffffffffffffff1663d0e30db0346040518263ffffffff1660e01b81526004016000604051808303818588803b15801561207d57600080fd5b505af1158015612091573d6000803e3d6000fd5b505050505060006120a183613605565b90508473ffffffffffffffffffffffffffffffffffffffff1663a9059cbb336120ea6402540be4006120dc868961363b90919063ffffffff16565b61352690919063ffffffff16565b6040518363ffffffff1660e01b8152600401612107929190614027565b6020604051808303816000875af1158015612126573d6000803e3d6000fd5b505050506040513d601f19601f8201168201806040525081019061214a919061407c565b507f5ea8759b68627ec29b178c065e52f9aa44e80fa7a9826379f0b00d0c4737aeb1346121976402540be400612189858861363b90919063ffffffff16565b61352690919063ffffffff16565b6121af6402540be4008561352690919063ffffffff16565b336040516121c09493929190614373565b60405180910390a15050506125f4565b600034111580156121e657506121e58361336b565b5b801561223d57507f000000000000000000000000000000000000000000000000000000000000000073ffffffffffffffffffffffffffffffffffffffff168273ffffffffffffffffffffffffffffffffffffffff16145b156125f357600061226f847f000000000000000000000000000000000000000000000000000000000000000084610e80565b90506122896402540be4008261352690919063ffffffff16565b7f000000000000000000000000000000000000000000000000000000000000000073ffffffffffffffffffffffffffffffffffffffff166370a08231306040518263ffffffff1660e01b81526004016122e29190613b19565b602060405180830381865afa1580156122ff573d6000803e3d6000fd5b505050506040513d601f19601f820116820180604052508101906123239190613fb4565b101561237d576123416402540be4008261352690919063ffffffff16565b6040517fb8c67e600000000000000000000000000000000000000000000000000000000081526004016123749190613be9565b60405180910390fd5b60007f0000000000000000000000000000000000000000000000000000000000000000905060006123ad83613605565b905060006123db6402540be4006123cd848761363b90919063ffffffff16565b61352690919063ffffffff16565b90508673ffffffffffffffffffffffffffffffffffffffff166323b872dd3330612416670de0b6b3a76400008a61352690919063ffffffff16565b6040518463ffffffff1660e01b8152600401612434939291906142e8565b6020604051808303816000875af1158015612453573d6000803e3d6000fd5b505050506040513d601f19601f82011682018060405250810190612477919061407c565b508273ffffffffffffffffffffffffffffffffffffffff16632e1a7d4d826040518263ffffffff1660e01b81526004016124b19190613aef565b600060405180830381600087803b1580156124cb57600080fd5b505af11580156124df573d6000803e3d6000fd5b5050505060003373ffffffffffffffffffffffffffffffffffffffff168260405161250990614012565b60006040518083038185875af1925050503d8060008114612546576040519150601f19603f3d011682016040523d82523d6000602084013e61254b565b606091505b5050905080612586576040517fd7227dda00000000000000000000000000000000000000000000000000000000815260040160405180910390fd5b7fc4ba93cc2a4369d092310672c450b170682626c0db2883bb58653fabf746781f670de0b6b3a7640000876125bb91906143b8565b836125d46402540be4008761352690919063ffffffff16565b336040516125e59493929190614373565b60405180910390a150505050505b5b6001600381905550505050565b612609613796565b6126136004613480565b821061264b576040517f04f490d500000000000000000000000000000000000000000000000000000000815260040160405180910390fd5b600560008381526020019081526020016000206040518060c00160405290816000820160009054906101000a900473ffffffffffffffffffffffffffffffffffffffff1673ffffffffffffffffffffffffffffffffffffffff1673ffffffffffffffffffffffffffffffffffffffff1681526020016001820154815260200160028201548152602001600382015481526020016004820160009054906101000a900473ffffffffffffffffffffffffffffffffffffffff1673ffffffffffffffffffffffffffffffffffffffff1673ffffffffffffffffffffffffffffffffffffffff1681526020016004820160149054906101000a900460ff1615151515815250509050919050565b606060018054806020026020016040519081016040528092919081815260200182805480156127d957602002820191906000526020600020905b8160009054906101000a900473ffffffffffffffffffffffffffffffffffffffff1673ffffffffffffffffffffffffffffffffffffffff168152602001906001019080831161278f575b5050505050905090565b6127eb61353c565b60005b81518160ff16101561288d576001828260ff16815181106128125761281161410a565b5b60200260200101519080600181540180825580915050600190039060005260206000200160009091909190916101000a81548173ffffffffffffffffffffffffffffffffffffffff021916908373ffffffffffffffffffffffffffffffffffffffff160217905550808061288590614175565b9150506127ee565b507f0f92e01580a0fc1a528e75e070f2ab1b2622d8f422c90e7f878e75530b34c952816128b86135ba565b6040516128c69291906141e3565b60405180910390a150565b600181815481106128e157600080fd5b906000526020600020016000915054906101000a900473ffffffffffffffffffffffffffffffffffffffff1681565b600260035403612955576040517f08c379a000000000000000000000000000000000000000000000000000000000815260040161294c90613f7f565b60405180910390fd5b6002600381905550600034116129a45733346040517f4529132600000000000000000000000000000000000000000000000000000000815260040161299b929190614027565b60405180910390fd5b60006040518060c001604052807f000000000000000000000000000000000000000000000000000000000000000073ffffffffffffffffffffffffffffffffffffffff16815260200134815260200142815260200162093a8042612a0891906142b4565b81526020013373ffffffffffffffffffffffffffffffffffffffff1681526020016001151581525090508060056000612a416004613480565b815260200190815260200160002060008201518160000160006101000a81548173ffffffffffffffffffffffffffffffffffffffff021916908373ffffffffffffffffffffffffffffffffffffffff16021790555060208201518160010155604082015181600201556060820151816003015560808201518160040160006101000a81548173ffffffffffffffffffffffffffffffffffffffff021916908373ffffffffffffffffffffffffffffffffffffffff16021790555060a08201518160040160146101000a81548160ff0219169083151502179055509050506000612b2a6004613480565b9050600660003373ffffffffffffffffffffffffffffffffffffffff1673ffffffffffffffffffffffffffffffffffffffff168152602001908152602001600020819080600181540180825580915050600190039060005260206000200160009091909190915055612b9c60046135ef565b60007f000000000000000000000000000000000000000000000000000000000000000090508073ffffffffffffffffffffffffffffffffffffffff1663d0e30db0346040518263ffffffff1660e01b81526004016000604051808303818588803b158015612c0957600080fd5b505af1158015612c1d573d6000803e3d6000fd5b5050505050427f000000000000000000000000000000000000000000000000000000000000000073ffffffffffffffffffffffffffffffffffffffff16837f36fada1fbbd5061ae87da160ee9cf9148d23771d156cdcd0d509004665580992343362093a8042612c8d91906142b4565b6001604051612c9f949392919061432e565b60405180910390a45050506001600381905550565b600260035403612cf9576040517f08c379a0000000000000000000000000000000000000000000000000000000008152600401612cf090613f7f565b60405180910390fd5b60026003819055507f000000000000000000000000000000000000000000000000000000000000000073ffffffffffffffffffffffffffffffffffffffff168373ffffffffffffffffffffffffffffffffffffffff161480612da657507f000000000000000000000000000000000000000000000000000000000000000073ffffffffffffffffffffffffffffffffffffffff168273ffffffffffffffffffffffffffffffffffffffff16145b15612ddd576040517fd4f017e300000000000000000000000000000000000000000000000000000000815260040160405180910390fd5b8173ffffffffffffffffffffffffffffffffffffffff168373ffffffffffffffffffffffffffffffffffffffff1603612e4f5782826040517f048fdf11000000000000000000000000000000000000000000000000000000008152600401612e46929190614213565b60405180910390fd5b600073ffffffffffffffffffffffffffffffffffffffff168373ffffffffffffffffffffffffffffffffffffffff161480612eb65750600073ffffffffffffffffffffffffffffffffffffffff168273ffffffffffffffffffffffffffffffffffffffff16145b15612ef95760006040517ff013c1c7000000000000000000000000000000000000000000000000000000008152600401612ef09190613b19565b60405180910390fd5b60008111612f405733816040517f188ea6a1000000000000000000000000000000000000000000000000000000008152600401612f37929190614027565b60405180910390fd5b612f498361336b565b1580612f5b5750612f598261336b565b155b15612f9f5782826040517fccb4b98a000000000000000000000000000000000000000000000000000000008152600401612f96929190614213565b60405180910390fd5b808373ffffffffffffffffffffffffffffffffffffffff166370a08231336040518263ffffffff1660e01b8152600401612fd99190613b19565b602060405180830381865afa158015612ff6573d6000803e3d6000fd5b505050506040513d601f19601f8201168201806040525081019061301a9190613fb4565b101561305f5733836040517f2250391f000000000000000000000000000000000000000000000000000000008152600401613056929190614213565b60405180910390fd5b600061306c848484610e80565b9050808373ffffffffffffffffffffffffffffffffffffffff166370a08231306040518263ffffffff1660e01b81526004016130a89190613b19565b602060405180830381865afa1580156130c5573d6000803e3d6000fd5b505050506040513d601f19601f820116820180604052508101906130e99190613fb4565b101561312c57806040517fb8c67e600000000000000000000000000000000000000000000000000000000081526004016131239190613be9565b60405180910390fd5b600061313782613605565b905060006131656402540be400613157848661363b90919063ffffffff16565b61352690919063ffffffff16565b90508573ffffffffffffffffffffffffffffffffffffffff166323b872dd33306131a0670de0b6b3a76400008961352690919063ffffffff16565b6040518463ffffffff1660e01b81526004016131be939291906142e8565b6020604051808303816000875af11580156131dd573d6000803e3d6000fd5b505050506040513d601f19601f82011682018060405250810190613201919061407c565b508473ffffffffffffffffffffffffffffffffffffffff1663a9059cbb33836040518363ffffffff1660e01b815260040161323d929190614027565b6020604051808303816000875af115801561325c573d6000803e3d6000fd5b505050506040513d601f19601f82011682018060405250810190613280919061407c565b507f18764c8d0c0e69b6413adcc413385be0c1b905839a173088010b8fb399ff80906132bd670de0b6b3a76400008661352690919063ffffffff16565b8284336040516132d09493929190614373565b60405180910390a15050506001600381905550505050565b6132f061353c565b600073ffffffffffffffffffffffffffffffffffffffff168173ffffffffffffffffffffffffffffffffffffffff160361335f576040517f08c379a00000000000000000000000000000000000000000000000000000000081526004016133569061446c565b60405180910390fd5b61336881613651565b50565b60008060018054806020026020016040519081016040528092919081815260200182805480156133f057602002820191906000526020600020905b8160009054906101000a900473ffffffffffffffffffffffffffffffffffffffff1673ffffffffffffffffffffffffffffffffffffffff16815260200190600101908083116133a6575b5050505050905060005b81518160ff16101561347457818160ff168151811061341c5761341b61410a565b5b602002602001015173ffffffffffffffffffffffffffffffffffffffff168473ffffffffffffffffffffffffffffffffffffffff16036134615760019250505061347b565b808061346c90614175565b9150506133fa565b5060009150505b919050565b600081600001549050919050565b6000806301e13380905060006134ad844261363b90919063ffffffff16565b905060006134c5600a8761352690919063ffffffff16565b9050600061350160646134f3866134e5868861352690919063ffffffff16565b6135d990919063ffffffff16565b6135d990919063ffffffff16565b90508094505050505092915050565b6000818361351e91906142b4565b905092915050565b6000818361353491906143b8565b905092915050565b6135446135ba565b73ffffffffffffffffffffffffffffffffffffffff16613562611b7b565b73ffffffffffffffffffffffffffffffffffffffff16146135b8576040517f08c379a00000000000000000000000000000000000000000000000000000000081526004016135af906144d8565b60405180910390fd5b565b600033905090565b6000806135ce83613715565b905080915050919050565b600081836135e79190614527565b905092915050565b6001816000016000828254019250508190555050565b600080613630612710613622601e8661352690919063ffffffff16565b6135d990919063ffffffff16565b905080915050919050565b600081836136499190614558565b905092915050565b60008060009054906101000a900473ffffffffffffffffffffffffffffffffffffffff169050816000806101000a81548173ffffffffffffffffffffffffffffffffffffffff021916908373ffffffffffffffffffffffffffffffffffffffff1602179055508173ffffffffffffffffffffffffffffffffffffffff168173ffffffffffffffffffffffffffffffffffffffff167f8be0079c531659141344cd1fd0a4f28419497f9722a3daafe3b4186f6b6457e060405160405180910390a35050565b6000808273ffffffffffffffffffffffffffffffffffffffff1663feaf968c6040518163ffffffff1660e01b815260040160a060405180830381865afa158015613763573d6000803e3d6000fd5b505050506040513d601f19601f8201168201806040525081019061378791906145fa565b50505091505080915050919050565b6040518060c00160405280600073ffffffffffffffffffffffffffffffffffffffff168152602001600081526020016000815260200160008152602001600073ffffffffffffffffffffffffffffffffffffffff1681526020016000151581525090565b6000604051905090565b600080fd5b600080fd5b6000819050919050565b6138218161380e565b811461382c57600080fd5b50565b60008135905061383e81613818565b92915050565b600073ffffffffffffffffffffffffffffffffffffffff82169050919050565b600061386f82613844565b9050919050565b61387f81613864565b811461388a57600080fd5b50565b60008135905061389c81613876565b92915050565b600080604083850312156138b9576138b8613804565b5b60006138c78582860161382f565b92505060206138d88582860161388d565b9150509250929050565b600080fd5b6000601f19601f8301169050919050565b7f4e487b7100000000000000000000000000000000000000000000000000000000600052604160045260246000fd5b613930826138e7565b810181811067ffffffffffffffff8211171561394f5761394e6138f8565b5b80604052505050565b60006139626137fa565b905061396e8282613927565b919050565b600067ffffffffffffffff82111561398e5761398d6138f8565b5b602082029050602081019050919050565b600080fd5b60006139b76139b284613973565b613958565b905080838252602082019050602084028301858111156139da576139d961399f565b5b835b81811015613a0357806139ef888261388d565b8452602084019350506020810190506139dc565b5050509392505050565b600082601f830112613a2257613a216138e2565b5b8135613a328482602086016139a4565b91505092915050565b60008060408385031215613a5257613a51613804565b5b600083013567ffffffffffffffff811115613a7057613a6f613809565b5b613a7c85828601613a0d565b925050602083013567ffffffffffffffff811115613a9d57613a9c613809565b5b613aa985828601613a0d565b9150509250929050565b600060208284031215613ac957613ac8613804565b5b6000613ad78482850161388d565b91505092915050565b613ae98161380e565b82525050565b6000602082019050613b046000830184613ae0565b92915050565b613b1381613864565b82525050565b6000602082019050613b2e6000830184613b0a565b92915050565b600060208284031215613b4a57613b49613804565b5b600082013567ffffffffffffffff811115613b6857613b67613809565b5b613b7484828501613a0d565b91505092915050565b600080600060608486031215613b9657613b95613804565b5b6000613ba48682870161388d565b9350506020613bb58682870161388d565b9250506040613bc68682870161382f565b9150509250925092565b6000819050919050565b613be381613bd0565b82525050565b6000602082019050613bfe6000830184613bda565b92915050565b60008060408385031215613c1b57613c1a613804565b5b6000613c298582860161388d565b9250506020613c3a8582860161382f565b9150509250929050565b60008060408385031215613c5b57613c5a613804565b5b6000613c698582860161388d565b9250506020613c7a8582860161388d565b9150509250929050565b600081519050919050565b600082825260208201905092915050565b6000819050602082019050919050565b613cb98161380e565b82525050565b6000613ccb8383613cb0565b60208301905092915050565b6000602082019050919050565b6000613cef82613c84565b613cf98185613c8f565b9350613d0483613ca0565b8060005b83811015613d35578151613d1c8882613cbf565b9750613d2783613cd7565b925050600181019050613d08565b5085935050505092915050565b60006020820190508181036000830152613d5c8184613ce4565b905092915050565b600060208284031215613d7a57613d79613804565b5b6000613d888482850161382f565b91505092915050565b613d9a81613864565b82525050565b60008115159050919050565b613db581613da0565b82525050565b60c082016000820151613dd16000850182613d91565b506020820151613de46020850182613cb0565b506040820151613df76040850182613cb0565b506060820151613e0a6060850182613cb0565b506080820151613e1d6080850182613d91565b5060a0820151613e3060a0850182613dac565b50505050565b600060c082019050613e4b6000830184613dbb565b92915050565b600081519050919050565b600082825260208201905092915050565b6000819050602082019050919050565b6000613e898383613d91565b60208301905092915050565b6000602082019050919050565b6000613ead82613e51565b613eb78185613e5c565b9350613ec283613e6d565b8060005b83811015613ef3578151613eda8882613e7d565b9750613ee583613e95565b925050600181019050613ec6565b5085935050505092915050565b60006020820190508181036000830152613f1a8184613ea2565b905092915050565b600082825260208201905092915050565b7f5265656e7472616e637947756172643a207265656e7472616e742063616c6c00600082015250565b6000613f69601f83613f22565b9150613f7482613f33565b602082019050919050565b60006020820190508181036000830152613f9881613f5c565b9050919050565b600081519050613fae81613818565b92915050565b600060208284031215613fca57613fc9613804565b5b6000613fd884828501613f9f565b91505092915050565b600081905092915050565b50565b6000613ffc600083613fe1565b915061400782613fec565b600082019050919050565b600061401d82613fef565b9150819050919050565b600060408201905061403c6000830185613b0a565b6140496020830184613ae0565b9392505050565b61405981613da0565b811461406457600080fd5b50565b60008151905061407681614050565b92915050565b60006020828403121561409257614091613804565b5b60006140a084828501614067565b91505092915050565b600060c0820190506140be6000830189613ae0565b6140cb6020830188613ae0565b6140d86040830187613ae0565b6140e56060830186613ae0565b6140f26080830185613b0a565b6140ff60a0830184613b0a565b979650505050505050565b7f4e487b7100000000000000000000000000000000000000000000000000000000600052603260045260246000fd5b7f4e487b7100000000000000000000000000000000000000000000000000000000600052601160045260246000fd5b600060ff82169050919050565b600061418082614168565b915060ff820361419357614192614139565b5b600182019050919050565b600060608201905081810360008301526141b88186613ea2565b905081810360208301526141cc8185613ea2565b90506141db6040830184613b0a565b949350505050565b600060408201905081810360008301526141fd8185613ea2565b905061420c6020830184613b0a565b9392505050565b60006040820190506142286000830185613b0a565b6142356020830184613b0a565b9392505050565b600061424782613bd0565b915061425283613bd0565b925082820261426081613bd0565b91507f8000000000000000000000000000000000000000000000000000000000000000841460008412161561429857614297614139565b5b82820584148315176142ad576142ac614139565b5b5092915050565b60006142bf8261380e565b91506142ca8361380e565b92508282019050808211156142e2576142e1614139565b5b92915050565b60006060820190506142fd6000830186613b0a565b61430a6020830185613b0a565b6143176040830184613ae0565b949350505050565b61432881613da0565b82525050565b60006080820190506143436000830187613ae0565b6143506020830186613b0a565b61435d6040830185613ae0565b61436a606083018461431f565b95945050505050565b60006080820190506143886000830187613ae0565b6143956020830186613bda565b6143a26040830185613bda565b6143af6060830184613b0a565b95945050505050565b60006143c38261380e565b91506143ce8361380e565b92508282026143dc8161380e565b915082820484148315176143f3576143f2614139565b5b5092915050565b7f4f776e61626c653a206e6577206f776e657220697320746865207a65726f206160008201527f6464726573730000000000000000000000000000000000000000000000000000602082015250565b6000614456602683613f22565b9150614461826143fa565b604082019050919050565b6000602082019050818103600083015261448581614449565b9050919050565b7f4f776e61626c653a2063616c6c6572206973206e6f7420746865206f776e6572600082015250565b60006144c2602083613f22565b91506144cd8261448c565b602082019050919050565b600060208201905081810360008301526144f1816144b5565b9050919050565b7f4e487b7100000000000000000000000000000000000000000000000000000000600052601260045260246000fd5b60006145328261380e565b915061453d8361380e565b92508261454d5761454c6144f8565b5b828204905092915050565b60006145638261380e565b915061456e8361380e565b925082820390508181111561458657614585614139565b5b92915050565b600069ffffffffffffffffffff82169050919050565b6145ab8161458c565b81146145b657600080fd5b50565b6000815190506145c8816145a2565b92915050565b6145d781613bd0565b81146145e257600080fd5b50565b6000815190506145f4816145ce565b92915050565b600080600080600060a0868803121561461657614615613804565b5b6000614624888289016145b9565b9550506020614635888289016145e5565b945050604061464688828901613f9f565b935050606061465788828901613f9f565b9250506080614668888289016145b9565b915050929550929590935056fea2646970667358221220621114d145d6b71963aa9b8e8a21a91248bf3998eba5658f7e5c5c40ded0f08e64736f6c63430008110033",
  "devdoc": {
    "author": "Aamir usmani. github username: Aamirusmani1552",
    "details": "since solidity doesn't support fractional value, the contract formula's has been modified accordingly.",
    "kind": "dev",
    "methods": {
      "owner()": {
        "details": "Returns the address of the current owner."
      },
      "renounceOwnership()": {
        "details": "Leaves the contract without owner. It will not be possible to call `onlyOwner` functions anymore. Can only be called by the current owner. NOTE: Renouncing ownership will leave the contract without an owner, thereby removing any functionality that is only available to the owner."
      },
      "transferOwnership(address)": {
        "details": "Transfers ownership of the contract to a new account (`newOwner`). Can only be called by the current owner."
      }
    },
    "title": "A Decenteralized exchange for swapping tokens",
    "version": 1
  },
  "userdoc": {
    "kind": "user",
    "methods": {},
    "notice": "This contract is just a for learning purpose. Please don't use it to deploy on mainnet. it might lead to loss of funds.",
    "version": 1
  },
  "storageLayout": {
    "storage": [
      {
        "astId": 53,
        "contract": "contracts/DEX.sol:DEX",
        "label": "_owner",
        "offset": 0,
        "slot": "0",
        "type": "t_address"
      },
      {
        "astId": 3272,
        "contract": "contracts/DEX.sol:DEX",
        "label": "s_validTokenAddresses",
        "offset": 0,
        "slot": "1",
        "type": "t_array(t_address)dyn_storage"
      },
      {
        "astId": 3116,
        "contract": "contracts/DEX.sol:DEX",
        "label": "s_tokenUsdPricesV3contracts",
        "offset": 0,
        "slot": "2",
        "type": "t_mapping(t_address,t_address)"
      },
      {
        "astId": 169,
        "contract": "contracts/DEX.sol:DEX",
        "label": "_status",
        "offset": 0,
        "slot": "3",
        "type": "t_uint256"
      },
      {
        "astId": 1385,
        "contract": "contracts/DEX.sol:DEX",
        "label": "s_counter",
        "offset": 0,
        "slot": "4",
        "type": "t_struct(Counter)915_storage"
      },
      {
        "astId": 1406,
        "contract": "contracts/DEX.sol:DEX",
        "label": "s_liquidityPool",
        "offset": 0,
        "slot": "5",
        "type": "t_mapping(t_uint256,t_struct(pool)1401_storage)"
      },
      {
        "astId": 1411,
        "contract": "contracts/DEX.sol:DEX",
        "label": "s_poolContributions",
        "offset": 0,
        "slot": "6",
        "type": "t_mapping(t_address,t_array(t_uint256)dyn_storage)"
      }
    ],
    "types": {
      "t_address": {
        "encoding": "inplace",
        "label": "address",
        "numberOfBytes": "20"
      },
      "t_array(t_address)dyn_storage": {
        "base": "t_address",
        "encoding": "dynamic_array",
        "label": "address[]",
        "numberOfBytes": "32"
      },
      "t_array(t_uint256)dyn_storage": {
        "base": "t_uint256",
        "encoding": "dynamic_array",
        "label": "uint256[]",
        "numberOfBytes": "32"
      },
      "t_bool": {
        "encoding": "inplace",
        "label": "bool",
        "numberOfBytes": "1"
      },
      "t_mapping(t_address,t_address)": {
        "encoding": "mapping",
        "key": "t_address",
        "label": "mapping(address => address)",
        "numberOfBytes": "32",
        "value": "t_address"
      },
      "t_mapping(t_address,t_array(t_uint256)dyn_storage)": {
        "encoding": "mapping",
        "key": "t_address",
        "label": "mapping(address => uint256[])",
        "numberOfBytes": "32",
        "value": "t_array(t_uint256)dyn_storage"
      },
      "t_mapping(t_uint256,t_struct(pool)1401_storage)": {
        "encoding": "mapping",
        "key": "t_uint256",
        "label": "mapping(uint256 => struct DEX.pool)",
        "numberOfBytes": "32",
        "value": "t_struct(pool)1401_storage"
      },
      "t_struct(Counter)915_storage": {
        "encoding": "inplace",
        "label": "struct Counters.Counter",
        "members": [
          {
            "astId": 914,
            "contract": "contracts/DEX.sol:DEX",
            "label": "_value",
            "offset": 0,
            "slot": "0",
            "type": "t_uint256"
          }
        ],
        "numberOfBytes": "32"
      },
      "t_struct(pool)1401_storage": {
        "encoding": "inplace",
        "label": "struct DEX.pool",
        "members": [
          {
            "astId": 1390,
            "contract": "contracts/DEX.sol:DEX",
            "label": "token",
            "offset": 0,
            "slot": "0",
            "type": "t_address"
          },
          {
            "astId": 1392,
            "contract": "contracts/DEX.sol:DEX",
            "label": "amount",
            "offset": 0,
            "slot": "1",
            "type": "t_uint256"
          },
          {
            "astId": 1394,
            "contract": "contracts/DEX.sol:DEX",
            "label": "timestamp",
            "offset": 0,
            "slot": "2",
            "type": "t_uint256"
          },
          {
            "astId": 1396,
            "contract": "contracts/DEX.sol:DEX",
            "label": "minLockPeriod",
            "offset": 0,
            "slot": "3",
            "type": "t_uint256"
          },
          {
            "astId": 1398,
            "contract": "contracts/DEX.sol:DEX",
            "label": "owner",
            "offset": 0,
            "slot": "4",
            "type": "t_address"
          },
          {
            "astId": 1400,
            "contract": "contracts/DEX.sol:DEX",
            "label": "active",
            "offset": 20,
            "slot": "4",
            "type": "t_bool"
          }
        ],
        "numberOfBytes": "160"
      },
      "t_uint256": {
        "encoding": "inplace",
        "label": "uint256",
        "numberOfBytes": "32"
      }
    }
  }
}