{
  "_format": "hh-sol-artifact-1",
  "contractName": "DEXTokenPrice",
  "sourceName": "contracts/DEXTokenPrice.sol",
  "abi": [
    {
      "inputs": [
        {
          "internalType": "address[]",
          "name": "validTokenAddr",
          "type": "address[]"
        },
        {
          "internalType": "address[]",
          "name": "chainlinkAggregatorV3Addr",
          "type": "address[]"
        }
      ],
      "stateMutability": "nonpayable",
      "type": "constructor"
    },
    {
      "inputs": [],
      "name": "DEXTokenPrice_dataIsInconsistent",
      "type": "error"
    },
    {
      "anonymous": false,
      "inputs": [
        {
          "indexed": true,
          "internalType": "address",
          "name": "previousOwner",
          "type": "address"
        },
        {
          "indexed": true,
          "internalType": "address",
          "name": "newOwner",
          "type": "address"
        }
      ],
      "name": "OwnershipTransferred",
      "type": "event"
    },
    {
      "anonymous": false,
      "inputs": [
        {
          "indexed": false,
          "internalType": "address[]",
          "name": "tokenAddresses",
          "type": "address[]"
        },
        {
          "indexed": false,
          "internalType": "address[]",
          "name": "contractAddresses",
          "type": "address[]"
        },
        {
          "indexed": false,
          "internalType": "address",
          "name": "owner",
          "type": "address"
        }
      ],
      "name": "chainLinkPriceFeedAdded",
      "type": "event"
    },
    {
      "inputs": [
        {
          "internalType": "address[]",
          "name": "tokenAddresses",
          "type": "address[]"
        },
        {
          "internalType": "address[]",
          "name": "contractAddresses",
          "type": "address[]"
        }
      ],
      "name": "addChainlinkPriceFeeds",
      "outputs": [],
      "stateMutability": "nonpayable",
      "type": "function"
    },
    {
      "inputs": [
        {
          "internalType": "address",
          "name": "token",
          "type": "address"
        }
      ],
      "name": "getPriceFeedContract",
      "outputs": [
        {
          "internalType": "address",
          "name": "",
          "type": "address"
        }
      ],
      "stateMutability": "view",
      "type": "function"
    },
    {
      "inputs": [],
      "name": "owner",
      "outputs": [
        {
          "internalType": "address",
          "name": "",
          "type": "address"
        }
      ],
      "stateMutability": "view",
      "type": "function"
    },
    {
      "inputs": [],
      "name": "renounceOwnership",
      "outputs": [],
      "stateMutability": "nonpayable",
      "type": "function"
    },
    {
      "inputs": [
        {
          "internalType": "address",
          "name": "newOwner",
          "type": "address"
        }
      ],
      "name": "transferOwnership",
      "outputs": [],
      "stateMutability": "nonpayable",
      "type": "function"
    }
  ],
  "bytecode": "0x60806040523480156200001157600080fd5b5060405162000f7238038062000f728339818101604052810190620000379190620003fe565b620000576200004b6200014460201b60201c565b6200014c60201b60201c565b60005b82518160ff1610156200013b57818160ff168151811062000080576200007f62000483565b5b602002602001015160016000858460ff1681518110620000a557620000a462000483565b5b602002602001015173ffffffffffffffffffffffffffffffffffffffff1673ffffffffffffffffffffffffffffffffffffffff16815260200190815260200160002060006101000a81548173ffffffffffffffffffffffffffffffffffffffff021916908373ffffffffffffffffffffffffffffffffffffffff16021790555080806200013290620004ee565b9150506200005a565b5050506200051c565b600033905090565b60008060009054906101000a900473ffffffffffffffffffffffffffffffffffffffff169050816000806101000a81548173ffffffffffffffffffffffffffffffffffffffff021916908373ffffffffffffffffffffffffffffffffffffffff1602179055508173ffffffffffffffffffffffffffffffffffffffff168173ffffffffffffffffffffffffffffffffffffffff167f8be0079c531659141344cd1fd0a4f28419497f9722a3daafe3b4186f6b6457e060405160405180910390a35050565b6000604051905090565b600080fd5b600080fd5b600080fd5b6000601f19601f8301169050919050565b7f4e487b7100000000000000000000000000000000000000000000000000000000600052604160045260246000fd5b620002748262000229565b810181811067ffffffffffffffff821117156200029657620002956200023a565b5b80604052505050565b6000620002ab62000210565b9050620002b9828262000269565b919050565b600067ffffffffffffffff821115620002dc57620002db6200023a565b5b602082029050602081019050919050565b600080fd5b600073ffffffffffffffffffffffffffffffffffffffff82169050919050565b60006200031f82620002f2565b9050919050565b620003318162000312565b81146200033d57600080fd5b50565b600081519050620003518162000326565b92915050565b60006200036e6200036884620002be565b6200029f565b90508083825260208201905060208402830185811115620003945762000393620002ed565b5b835b81811015620003c15780620003ac888262000340565b84526020840193505060208101905062000396565b5050509392505050565b600082601f830112620003e357620003e262000224565b5b8151620003f584826020860162000357565b91505092915050565b600080604083850312156200041857620004176200021a565b5b600083015167ffffffffffffffff8111156200043957620004386200021f565b5b6200044785828601620003cb565b925050602083015167ffffffffffffffff8111156200046b576200046a6200021f565b5b6200047985828601620003cb565b9150509250929050565b7f4e487b7100000000000000000000000000000000000000000000000000000000600052603260045260246000fd5b7f4e487b7100000000000000000000000000000000000000000000000000000000600052601160045260246000fd5b600060ff82169050919050565b6000620004fb82620004e1565b915060ff8203620005115762000510620004b2565b5b600182019050919050565b610a46806200052c6000396000f3fe608060405234801561001057600080fd5b50600436106100575760003560e01c80630e89a3ce1461005c5780633464f28414610078578063715018a6146100a85780638da5cb5b146100b2578063f2fde38b146100d0575b600080fd5b6100766004803603810190610071919061069b565b6100ec565b005b610092600480360381019061008d9190610713565b61025d565b60405161009f919061074f565b60405180910390f35b6100b06102c6565b005b6100ba6102da565b6040516100c7919061074f565b60405180910390f35b6100ea60048036038101906100e59190610713565b610303565b005b6100f4610386565b805182511180610105575080518251105b1561013c576040517f089b91de00000000000000000000000000000000000000000000000000000000815260040160405180910390fd5b60005b82518160ff16101561021657818160ff16815181106101615761016061076a565b5b602002602001015160016000858460ff16815181106101835761018261076a565b5b602002602001015173ffffffffffffffffffffffffffffffffffffffff1673ffffffffffffffffffffffffffffffffffffffff16815260200190815260200160002060006101000a81548173ffffffffffffffffffffffffffffffffffffffff021916908373ffffffffffffffffffffffffffffffffffffffff160217905550808061020e906107d5565b91505061013f565b507fb6a3ef7cf10656c235edee3c98898ae8a752c47fc3d8e0c6da716bc6607824988282610242610404565b604051610251939291906108bc565b60405180910390a15050565b6000600160008373ffffffffffffffffffffffffffffffffffffffff1673ffffffffffffffffffffffffffffffffffffffff16815260200190815260200160002060009054906101000a900473ffffffffffffffffffffffffffffffffffffffff169050919050565b6102ce610386565b6102d8600061040c565b565b60008060009054906101000a900473ffffffffffffffffffffffffffffffffffffffff16905090565b61030b610386565b600073ffffffffffffffffffffffffffffffffffffffff168173ffffffffffffffffffffffffffffffffffffffff160361037a576040517f08c379a000000000000000000000000000000000000000000000000000000000815260040161037190610984565b60405180910390fd5b6103838161040c565b50565b61038e610404565b73ffffffffffffffffffffffffffffffffffffffff166103ac6102da565b73ffffffffffffffffffffffffffffffffffffffff1614610402576040517f08c379a00000000000000000000000000000000000000000000000000000000081526004016103f9906109f0565b60405180910390fd5b565b600033905090565b60008060009054906101000a900473ffffffffffffffffffffffffffffffffffffffff169050816000806101000a81548173ffffffffffffffffffffffffffffffffffffffff021916908373ffffffffffffffffffffffffffffffffffffffff1602179055508173ffffffffffffffffffffffffffffffffffffffff168173ffffffffffffffffffffffffffffffffffffffff167f8be0079c531659141344cd1fd0a4f28419497f9722a3daafe3b4186f6b6457e060405160405180910390a35050565b6000604051905090565b600080fd5b600080fd5b600080fd5b6000601f19601f8301169050919050565b7f4e487b7100000000000000000000000000000000000000000000000000000000600052604160045260246000fd5b610532826104e9565b810181811067ffffffffffffffff82111715610551576105506104fa565b5b80604052505050565b60006105646104d0565b90506105708282610529565b919050565b600067ffffffffffffffff8211156105905761058f6104fa565b5b602082029050602081019050919050565b600080fd5b600073ffffffffffffffffffffffffffffffffffffffff82169050919050565b60006105d1826105a6565b9050919050565b6105e1816105c6565b81146105ec57600080fd5b50565b6000813590506105fe816105d8565b92915050565b600061061761061284610575565b61055a565b9050808382526020820190506020840283018581111561063a576106396105a1565b5b835b81811015610663578061064f88826105ef565b84526020840193505060208101905061063c565b5050509392505050565b600082601f830112610682576106816104e4565b5b8135610692848260208601610604565b91505092915050565b600080604083850312156106b2576106b16104da565b5b600083013567ffffffffffffffff8111156106d0576106cf6104df565b5b6106dc8582860161066d565b925050602083013567ffffffffffffffff8111156106fd576106fc6104df565b5b6107098582860161066d565b9150509250929050565b600060208284031215610729576107286104da565b5b6000610737848285016105ef565b91505092915050565b610749816105c6565b82525050565b60006020820190506107646000830184610740565b92915050565b7f4e487b7100000000000000000000000000000000000000000000000000000000600052603260045260246000fd5b7f4e487b7100000000000000000000000000000000000000000000000000000000600052601160045260246000fd5b600060ff82169050919050565b60006107e0826107c8565b915060ff82036107f3576107f2610799565b5b600182019050919050565b600081519050919050565b600082825260208201905092915050565b6000819050602082019050919050565b610833816105c6565b82525050565b6000610845838361082a565b60208301905092915050565b6000602082019050919050565b6000610869826107fe565b6108738185610809565b935061087e8361081a565b8060005b838110156108af5781516108968882610839565b97506108a183610851565b925050600181019050610882565b5085935050505092915050565b600060608201905081810360008301526108d6818661085e565b905081810360208301526108ea818561085e565b90506108f96040830184610740565b949350505050565b600082825260208201905092915050565b7f4f776e61626c653a206e6577206f776e657220697320746865207a65726f206160008201527f6464726573730000000000000000000000000000000000000000000000000000602082015250565b600061096e602683610901565b915061097982610912565b604082019050919050565b6000602082019050818103600083015261099d81610961565b9050919050565b7f4f776e61626c653a2063616c6c6572206973206e6f7420746865206f776e6572600082015250565b60006109da602083610901565b91506109e5826109a4565b602082019050919050565b60006020820190508181036000830152610a09816109cd565b905091905056fea2646970667358221220357b710e768487f13cb570db4c3209bad302695edce2a0ccec4bfb99d3c815e864736f6c63430008110033",
  "linkReferences": {},
  "deployedLinkReferences": {}
}